{
  "_format": "hh-sol-artifact-1",
  "contractName": "Teacher",
  "sourceName": "contracts/Teacher.sol",
  "abi": [
    {
      "inputs": [
        {
          "internalType": "string",
          "name": "name",
          "type": "string"
        },
        {
          "internalType": "string",
          "name": "sub",
          "type": "string"
        },
        {
          "internalType": "uint256",
          "name": "yr",
          "type": "uint256"
        }
      ],
      "stateMutability": "nonpayable",
      "type": "constructor"
    },
    {
      "inputs": [
        {
          "internalType": "uint256",
          "name": "num",
          "type": "uint256"
        }
      ],
      "name": "getAttendanceOfAStudent",
      "outputs": [
        {
          "internalType": "uint256",
          "name": "",
          "type": "uint256"
        }
      ],
      "stateMutability": "view",
      "type": "function"
    },
    {
      "inputs": [
        {
          "internalType": "uint256",
          "name": "roll",
          "type": "uint256"
        }
      ],
      "name": "markAStudent",
      "outputs": [],
      "stateMutability": "nonpayable",
      "type": "function"
    }
  ],
  "bytecode": "0x60806040523480156200001157600080fd5b5060405162000a2138038062000a21833981810160405281019062000037919062000239565b826000908162000048919062000514565b5081600190816200005a919062000514565b5080600281905550505050620005fb565b6000604051905090565b600080fd5b600080fd5b600080fd5b600080fd5b6000601f19601f8301169050919050565b7f4e487b7100000000000000000000000000000000000000000000000000000000600052604160045260246000fd5b620000d48262000089565b810181811067ffffffffffffffff82111715620000f657620000f56200009a565b5b80604052505050565b60006200010b6200006b565b9050620001198282620000c9565b919050565b600067ffffffffffffffff8211156200013c576200013b6200009a565b5b620001478262000089565b9050602081019050919050565b60005b838110156200017457808201518184015260208101905062000157565b60008484015250505050565b60006200019762000191846200011e565b620000ff565b905082815260208101848484011115620001b657620001b562000084565b5b620001c384828562000154565b509392505050565b600082601f830112620001e357620001e26200007f565b5b8151620001f584826020860162000180565b91505092915050565b6000819050919050565b6200021381620001fe565b81146200021f57600080fd5b50565b600081519050620002338162000208565b92915050565b60008060006060848603121562000255576200025462000075565b5b600084015167ffffffffffffffff8111156200027657620002756200007a565b5b6200028486828701620001cb565b935050602084015167ffffffffffffffff811115620002a857620002a76200007a565b5b620002b686828701620001cb565b9250506040620002c98682870162000222565b9150509250925092565b600081519050919050565b7f4e487b7100000000000000000000000000000000000000000000000000000000600052602260045260246000fd5b600060028204905060018216806200032657607f821691505b6020821081036200033c576200033b620002de565b5b50919050565b60008190508160005260206000209050919050565b60006020601f8301049050919050565b600082821b905092915050565b600060088302620003a67fffffffffffffffffffffffffffffffffffffffffffffffffffffffffffffffff8262000367565b620003b2868362000367565b95508019841693508086168417925050509392505050565b6000819050919050565b6000620003f5620003ef620003e984620001fe565b620003ca565b620001fe565b9050919050565b6000819050919050565b6200041183620003d4565b620004296200042082620003fc565b84845462000374565b825550505050565b600090565b6200044062000431565b6200044d81848462000406565b505050565b5b8181101562000475576200046960008262000436565b60018101905062000453565b5050565b601f821115620004c4576200048e8162000342565b620004998462000357565b81016020851015620004a9578190505b620004c1620004b88562000357565b83018262000452565b50505b505050565b600082821c905092915050565b6000620004e960001984600802620004c9565b1980831691505092915050565b6000620005048383620004d6565b9150826002028217905092915050565b6200051f82620002d3565b67ffffffffffffffff8111156200053b576200053a6200009a565b5b6200054782546200030d565b6200055482828562000479565b600060209050601f8311600181146200058c576000841562000577578287015190505b620005838582620004f6565b865550620005f3565b601f1984166200059c8662000342565b60005b82811015620005c6578489015182556001820191506020850194506020810190506200059f565b86831015620005e65784890151620005e2601f891682620004d6565b8355505b6001600288020188555050505b505050505050565b610416806200060b6000396000f3fe608060405234801561001057600080fd5b50600436106100365760003560e01c8063189d3b831461003b57806326856cbf1461006b575b600080fd5b6100556004803603810190610050919061021b565b610087565b6040516100629190610257565b60405180910390f35b6100856004803603810190610080919061021b565b61013e565b005b60006003600083815260200190815260200160002060009054906101000a900473ffffffffffffffffffffffffffffffffffffffff1673ffffffffffffffffffffffffffffffffffffffff166364a4852760016040518263ffffffff1660e01b81526004016100f6919061037c565b602060405180830381865afa158015610113573d6000803e3d6000fd5b505050506040513d601f19601f8201168201806040525081019061013791906103b3565b9050919050565b6003600082815260200190815260200160002060009054906101000a900473ffffffffffffffffffffffffffffffffffffffff1673ffffffffffffffffffffffffffffffffffffffff16633942142f60016040518263ffffffff1660e01b81526004016101ab919061037c565b600060405180830381600087803b1580156101c557600080fd5b505af11580156101d9573d6000803e3d6000fd5b5050505050565b600080fd5b6000819050919050565b6101f8816101e5565b811461020357600080fd5b50565b600081359050610215816101ef565b92915050565b600060208284031215610231576102306101e0565b5b600061023f84828501610206565b91505092915050565b610251816101e5565b82525050565b600060208201905061026c6000830184610248565b92915050565b7f4e487b7100000000000000000000000000000000000000000000000000000000600052602260045260246000fd5b600060028204905060018216806102b957607f821691505b6020821081036102cc576102cb610272565b5b50919050565b600082825260208201905092915050565b60008190508160005260206000209050919050565b60008154610305816102a1565b61030f81866102d2565b9450600182166000811461032a576001811461034057610373565b60ff198316865281151560200286019350610373565b610349856102e3565b60005b8381101561036b5781548189015260018201915060208101905061034c565b808801955050505b50505092915050565b6000602082019050818103600083015261039681846102f8565b905092915050565b6000815190506103ad816101ef565b92915050565b6000602082840312156103c9576103c86101e0565b5b60006103d78482850161039e565b9150509291505056fea2646970667358221220c121fb874e80c444fa042f2a1c4f201cf312223b1d8d201e7ee77525c52cac6f64736f6c63430008110033",
  "linkReferences": {},
  "deployedLinkReferences": {}
}