{
  "_format": "hh-sol-artifact-1",
  "contractName": "Student",
  "sourceName": "contracts/Student.sol",
  "abi": [
    {
      "inputs": [
        {
          "internalType": "string",
          "name": "name",
          "type": "string"
        },
        {
          "internalType": "uint256",
          "name": "roll",
          "type": "uint256"
        },
        {
          "internalType": "uint256",
          "name": "yr",
          "type": "uint256"
        }
      ],
      "stateMutability": "nonpayable",
      "type": "constructor"
    },
    {
      "inputs": [
        {
          "internalType": "string",
          "name": "sub",
          "type": "string"
        }
      ],
      "name": "getAttendance",
      "outputs": [
        {
          "internalType": "uint256",
          "name": "",
          "type": "uint256"
        }
      ],
      "stateMutability": "view",
      "type": "function"
    },
    {
      "inputs": [],
      "name": "getNumber",
      "outputs": [
        {
          "internalType": "uint256",
          "name": "",
          "type": "uint256"
        }
      ],
      "stateMutability": "view",
      "type": "function"
    },
    {
      "inputs": [],
      "name": "get_name",
      "outputs": [
        {
          "internalType": "string",
          "name": "",
          "type": "string"
        }
      ],
      "stateMutability": "view",
      "type": "function"
    },
    {
      "inputs": [],
      "name": "get_roll",
      "outputs": [
        {
          "internalType": "uint256",
          "name": "",
          "type": "uint256"
        }
      ],
      "stateMutability": "view",
      "type": "function"
    },
    {
      "inputs": [],
      "name": "get_yr",
      "outputs": [
        {
          "internalType": "uint256",
          "name": "",
          "type": "uint256"
        }
      ],
      "stateMutability": "view",
      "type": "function"
    },
    {
      "inputs": [
        {
          "internalType": "string",
          "name": "sub",
          "type": "string"
        }
      ],
      "name": "markAsPresent",
      "outputs": [],
      "stateMutability": "nonpayable",
      "type": "function"
    }
  ],
  "bytecode": "0x60806040523480156200001157600080fd5b5060405162000bf938038062000bf9833981810160405281019062000037919062000236565b8260009081620000489190620004f2565b5081600181905550806002819055504340600581905550505050620005d9565b6000604051905090565b600080fd5b600080fd5b600080fd5b600080fd5b6000601f19601f8301169050919050565b7f4e487b7100000000000000000000000000000000000000000000000000000000600052604160045260246000fd5b620000d18262000086565b810181811067ffffffffffffffff82111715620000f357620000f262000097565b5b80604052505050565b60006200010862000068565b9050620001168282620000c6565b919050565b600067ffffffffffffffff82111562000139576200013862000097565b5b620001448262000086565b9050602081019050919050565b60005b838110156200017157808201518184015260208101905062000154565b60008484015250505050565b6000620001946200018e846200011b565b620000fc565b905082815260208101848484011115620001b357620001b262000081565b5b620001c084828562000151565b509392505050565b600082601f830112620001e057620001df6200007c565b5b8151620001f28482602086016200017d565b91505092915050565b6000819050919050565b6200021081620001fb565b81146200021c57600080fd5b50565b600081519050620002308162000205565b92915050565b60008060006060848603121562000252576200025162000072565b5b600084015167ffffffffffffffff81111562000273576200027262000077565b5b6200028186828701620001c8565b935050602062000294868287016200021f565b9250506040620002a7868287016200021f565b9150509250925092565b600081519050919050565b7f4e487b7100000000000000000000000000000000000000000000000000000000600052602260045260246000fd5b600060028204905060018216806200030457607f821691505b6020821081036200031a5762000319620002bc565b5b50919050565b60008190508160005260206000209050919050565b60006020601f8301049050919050565b600082821b905092915050565b600060088302620003847fffffffffffffffffffffffffffffffffffffffffffffffffffffffffffffffff8262000345565b62000390868362000345565b95508019841693508086168417925050509392505050565b6000819050919050565b6000620003d3620003cd620003c784620001fb565b620003a8565b620001fb565b9050919050565b6000819050919050565b620003ef83620003b2565b62000407620003fe82620003da565b84845462000352565b825550505050565b600090565b6200041e6200040f565b6200042b818484620003e4565b505050565b5b8181101562000453576200044760008262000414565b60018101905062000431565b5050565b601f821115620004a2576200046c8162000320565b620004778462000335565b8101602085101562000487578190505b6200049f620004968562000335565b83018262000430565b50505b505050565b600082821c905092915050565b6000620004c760001984600802620004a7565b1980831691505092915050565b6000620004e28383620004b4565b9150826002028217905092915050565b620004fd82620002b1565b67ffffffffffffffff81111562000519576200051862000097565b5b620005258254620002eb565b6200053282828562000457565b600060209050601f8311600181146200056a576000841562000555578287015190505b620005618582620004d4565b865550620005d1565b601f1984166200057a8662000320565b60005b82811015620005a4578489015182556001820191506020850194506020810190506200057d565b86831015620005c45784890151620005c0601f891682620004b4565b8355505b6001600288020188555050505b505050505050565b61061080620005e96000396000f3fe608060405234801561001057600080fd5b50600436106100625760003560e01c80633942142f146100675780633a525c2914610083578063426840cd146100a157806364a48527146100bf578063f2c9ecd8146100ef578063fb69eddc1461010d575b600080fd5b610081600480360381019061007c9190610392565b61012b565b005b61008b610162565b604051610098919061045a565b60405180910390f35b6100a96101f4565b6040516100b69190610495565b60405180910390f35b6100d960048036038101906100d49190610392565b6101fe565b6040516100e69190610495565b60405180910390f35b6100f7610226565b6040516101049190610495565b60405180910390f35b61011561022e565b6040516101229190610495565b60405180910390f35b60038160405161013b91906104ec565b9081526020016040518091039020600081548092919061015a90610532565b919050555050565b606060008054610171906105a9565b80601f016020809104026020016040519081016040528092919081815260200182805461019d906105a9565b80156101ea5780601f106101bf576101008083540402835291602001916101ea565b820191906000526020600020905b8154815290600101906020018083116101cd57829003601f168201915b5050505050905090565b6000600154905090565b600060038260405161021091906104ec565b9081526020016040518091039020549050919050565b600043905090565b6000600254905090565b6000604051905090565b600080fd5b600080fd5b600080fd5b600080fd5b6000601f19601f8301169050919050565b7f4e487b7100000000000000000000000000000000000000000000000000000000600052604160045260246000fd5b61029f82610256565b810181811067ffffffffffffffff821117156102be576102bd610267565b5b80604052505050565b60006102d1610238565b90506102dd8282610296565b919050565b600067ffffffffffffffff8211156102fd576102fc610267565b5b61030682610256565b9050602081019050919050565b82818337600083830152505050565b6000610335610330846102e2565b6102c7565b90508281526020810184848401111561035157610350610251565b5b61035c848285610313565b509392505050565b600082601f8301126103795761037861024c565b5b8135610389848260208601610322565b91505092915050565b6000602082840312156103a8576103a7610242565b5b600082013567ffffffffffffffff8111156103c6576103c5610247565b5b6103d284828501610364565b91505092915050565b600081519050919050565b600082825260208201905092915050565b60005b838110156104155780820151818401526020810190506103fa565b60008484015250505050565b600061042c826103db565b61043681856103e6565b93506104468185602086016103f7565b61044f81610256565b840191505092915050565b600060208201905081810360008301526104748184610421565b905092915050565b6000819050919050565b61048f8161047c565b82525050565b60006020820190506104aa6000830184610486565b92915050565b600081905092915050565b60006104c6826103db565b6104d081856104b0565b93506104e08185602086016103f7565b80840191505092915050565b60006104f882846104bb565b915081905092915050565b7f4e487b7100000000000000000000000000000000000000000000000000000000600052601160045260246000fd5b600061053d8261047c565b91507fffffffffffffffffffffffffffffffffffffffffffffffffffffffffffffffff820361056f5761056e610503565b5b600182019050919050565b7f4e487b7100000000000000000000000000000000000000000000000000000000600052602260045260246000fd5b600060028204905060018216806105c157607f821691505b6020821081036105d4576105d361057a565b5b5091905056fea26469706673582212201b64116a0ea5dd11ed0f50ef1a7a284b03618ce40e9b484eb54ba99f160a535264736f6c63430008110033",
  "linkReferences": {},
  "deployedLinkReferences": {}
}